{
  "_format": "hh-sol-artifact-1",
  "contractName": "PaymentGateway",
  "sourceName": "contracts/PaymentGateway.sol",
  "abi": [
    {
      "inputs": [],
      "stateMutability": "nonpayable",
      "type": "constructor"
    },
    {
      "inputs": [
        {
          "internalType": "address",
          "name": "buyer",
          "type": "address"
        }
      ],
      "name": "buyProduct",
      "outputs": [],
      "stateMutability": "payable",
      "type": "function"
    },
    {
      "inputs": [],
      "name": "deliverProduct",
      "outputs": [],
      "stateMutability": "nonpayable",
      "type": "function"
    },
    {
      "inputs": [],
      "name": "deliveryBoy",
      "outputs": [
        {
          "internalType": "address",
          "name": "",
          "type": "address"
        }
      ],
      "stateMutability": "view",
      "type": "function"
    },
    {
      "inputs": [
        {
          "internalType": "address",
          "name": "addr",
          "type": "address"
        }
      ],
      "name": "getBalance",
      "outputs": [
        {
          "internalType": "uint256",
          "name": "",
          "type": "uint256"
        }
      ],
      "stateMutability": "view",
      "type": "function"
    },
    {
      "inputs": [],
      "name": "isDelivered",
      "outputs": [
        {
          "internalType": "bool",
          "name": "",
          "type": "bool"
        }
      ],
      "stateMutability": "view",
      "type": "function"
    },
    {
      "inputs": [],
      "name": "isPaid",
      "outputs": [
        {
          "internalType": "bool",
          "name": "",
          "type": "bool"
        }
      ],
      "stateMutability": "view",
      "type": "function"
    },
    {
      "inputs": [],
      "name": "price",
      "outputs": [
        {
          "internalType": "uint256",
          "name": "",
          "type": "uint256"
        }
      ],
      "stateMutability": "view",
      "type": "function"
    },
    {
      "inputs": [
        {
          "internalType": "address payable",
          "name": "seller",
          "type": "address"
        },
        {
          "internalType": "uint256",
          "name": "amount",
          "type": "uint256"
        }
      ],
      "name": "releaseFunds",
      "outputs": [],
      "stateMutability": "nonpayable",
      "type": "function"
    },
    {
      "inputs": [
        {
          "internalType": "address",
          "name": "seller",
          "type": "address"
        }
      ],
      "name": "releasePayment",
      "outputs": [],
      "stateMutability": "nonpayable",
      "type": "function"
    },
    {
      "inputs": [
        {
          "internalType": "address",
          "name": "_deliveryBoy",
          "type": "address"
        },
        {
          "internalType": "address",
          "name": "buyer",
          "type": "address"
        }
      ],
      "name": "setDeliveryBoy",
      "outputs": [],
      "stateMutability": "nonpayable",
      "type": "function"
    },
    {
      "inputs": [
        {
          "internalType": "address",
          "name": "",
          "type": "address"
        }
      ],
      "name": "tempPool",
      "outputs": [
        {
          "internalType": "uint256",
          "name": "",
          "type": "uint256"
        }
      ],
      "stateMutability": "view",
      "type": "function"
    },
    {
      "inputs": [
        {
          "internalType": "address",
          "name": "buyer",
          "type": "address"
        }
      ],
      "name": "withdrawFromTempPool",
      "outputs": [],
      "stateMutability": "nonpayable",
      "type": "function"
    }
  ],
  "bytecode": "0x608060405234801561001057600080fd5b5060006001819055506000600260006101000a81548160ff0219169083151502179055506000600260016101000a81548160ff0219169083151502179055506111328061005e6000396000f3fe6080604052600436106100a75760003560e01c8063cd22243f11610064578063cd22243f146101a8578063d000f8a1146101d3578063d6c8689714610210578063d6e982e51461022c578063f513a4b214610255578063f8b2cb4f1461026c576100a7565b8063209ebc08146100ac5780636bb02edb146100d7578063765f744c1461010057806377e2f10b1461012b5780637d03fb5514610154578063a035b1fe1461017d575b600080fd5b3480156100b857600080fd5b506100c16102a9565b6040516100ce91906109df565b60405180910390f35b3480156100e357600080fd5b506100fe60048036038101906100f99190610a5d565b6102bc565b005b34801561010c57600080fd5b50610115610490565b60405161012291906109df565b60405180910390f35b34801561013757600080fd5b50610152600480360381019061014d9190610a5d565b6104a3565b005b34801561016057600080fd5b5061017b60048036038101906101769190610a8a565b610637565b005b34801561018957600080fd5b506101926106e9565b60405161019f9190610ae3565b60405180910390f35b3480156101b457600080fd5b506101bd6106ef565b6040516101ca9190610b0d565b60405180910390f35b3480156101df57600080fd5b506101fa60048036038101906101f59190610a5d565b610713565b6040516102079190610ae3565b60405180910390f35b61022a60048036038101906102259190610a5d565b61072b565b005b34801561023857600080fd5b50610253600480360381019061024e9190610b92565b6107f2565b005b34801561026157600080fd5b5061026a610880565b005b34801561027857600080fd5b50610293600480360381019061028e9190610a5d565b61097b565b6040516102a09190610ae3565b60405180910390f35b600260019054906101000a900460ff1681565b8073ffffffffffffffffffffffffffffffffffffffff163373ffffffffffffffffffffffffffffffffffffffff161461032a576040517f08c379a000000000000000000000000000000000000000000000000000000000815260040161032190610c55565b60405180910390fd5b600260019054906101000a900460ff16610379576040517f08c379a000000000000000000000000000000000000000000000000000000000815260040161037090610ce7565b60405180910390fd5b6000600360003373ffffffffffffffffffffffffffffffffffffffff1673ffffffffffffffffffffffffffffffffffffffff16815260200190815260200160002054905060008111610400576040517f08c379a00000000000000000000000000000000000000000000000000000000081526004016103f790610d79565b60405180910390fd5b6000600360003373ffffffffffffffffffffffffffffffffffffffff1673ffffffffffffffffffffffffffffffffffffffff168152602001908152602001600020819055503373ffffffffffffffffffffffffffffffffffffffff166108fc829081150290604051600060405180830381858888f1935050505015801561048b573d6000803e3d6000fd5b505050565b600260009054906101000a900460ff1681565b60008054906101000a900473ffffffffffffffffffffffffffffffffffffffff1673ffffffffffffffffffffffffffffffffffffffff163373ffffffffffffffffffffffffffffffffffffffff1614610531576040517f08c379a000000000000000000000000000000000000000000000000000000000815260040161052890610e0b565b60405180910390fd5b600260009054906101000a900460ff16610580576040517f08c379a000000000000000000000000000000000000000000000000000000000815260040161057790610e9d565b60405180910390fd5b600260019054906101000a900460ff16156105d0576040517f08c379a00000000000000000000000000000000000000000000000000000000081526004016105c790610f2f565b60405180910390fd5b6001600260016101000a81548160ff0219169083151502179055508073ffffffffffffffffffffffffffffffffffffffff166108fc6001549081150290604051600060405180830381858888f19350505050158015610633573d6000803e3d6000fd5b5050565b8073ffffffffffffffffffffffffffffffffffffffff163373ffffffffffffffffffffffffffffffffffffffff16146106a5576040517f08c379a000000000000000000000000000000000000000000000000000000000815260040161069c90610c55565b60405180910390fd5b816000806101000a81548173ffffffffffffffffffffffffffffffffffffffff021916908373ffffffffffffffffffffffffffffffffffffffff1602179055505050565b60015481565b60008054906101000a900473ffffffffffffffffffffffffffffffffffffffff1681565b60036020528060005260406000206000915090505481565b8073ffffffffffffffffffffffffffffffffffffffff163373ffffffffffffffffffffffffffffffffffffffff1614610799576040517f08c379a000000000000000000000000000000000000000000000000000000000815260040161079090610c55565b60405180910390fd5b34600360003373ffffffffffffffffffffffffffffffffffffffff1673ffffffffffffffffffffffffffffffffffffffff16815260200190815260200160002060008282546107e89190610f7e565b9250508190555050565b47811115610835576040517f08c379a000000000000000000000000000000000000000000000000000000000815260040161082c9061104a565b60405180910390fd5b8173ffffffffffffffffffffffffffffffffffffffff166108fc829081150290604051600060405180830381858888f1935050505015801561087b573d6000803e3d6000fd5b505050565b60008054906101000a900473ffffffffffffffffffffffffffffffffffffffff1673ffffffffffffffffffffffffffffffffffffffff163373ffffffffffffffffffffffffffffffffffffffff161461090e576040517f08c379a000000000000000000000000000000000000000000000000000000000815260040161090590610e0b565b60405180910390fd5b600260009054906101000a900460ff161561095e576040517f08c379a0000000000000000000000000000000000000000000000000000000008152600401610955906110dc565b60405180910390fd5b6001600260006101000a81548160ff021916908315150217905550565b6000600360008373ffffffffffffffffffffffffffffffffffffffff1673ffffffffffffffffffffffffffffffffffffffff168152602001908152602001600020549050919050565b60008115159050919050565b6109d9816109c4565b82525050565b60006020820190506109f460008301846109d0565b92915050565b600080fd5b600073ffffffffffffffffffffffffffffffffffffffff82169050919050565b6000610a2a826109ff565b9050919050565b610a3a81610a1f565b8114610a4557600080fd5b50565b600081359050610a5781610a31565b92915050565b600060208284031215610a7357610a726109fa565b5b6000610a8184828501610a48565b91505092915050565b60008060408385031215610aa157610aa06109fa565b5b6000610aaf85828601610a48565b9250506020610ac085828601610a48565b9150509250929050565b6000819050919050565b610add81610aca565b82525050565b6000602082019050610af86000830184610ad4565b92915050565b610b0781610a1f565b82525050565b6000602082019050610b226000830184610afe565b92915050565b6000610b33826109ff565b9050919050565b610b4381610b28565b8114610b4e57600080fd5b50565b600081359050610b6081610b3a565b92915050565b610b6f81610aca565b8114610b7a57600080fd5b50565b600081359050610b8c81610b66565b92915050565b60008060408385031215610ba957610ba86109fa565b5b6000610bb785828601610b51565b9250506020610bc885828601610b7d565b9150509250929050565b600082825260208201905092915050565b7f4f6e6c792062757965722063616e2063616c6c20746869732066756e6374696f60008201527f6e2e000000000000000000000000000000000000000000000000000000000000602082015250565b6000610c3f602283610bd2565b9150610c4a82610be3565b604082019050919050565b60006020820190508181036000830152610c6e81610c32565b9050919050565b7f5061796d656e7420686173206e6f74206265656e2072656c656173656420796560008201527f742e000000000000000000000000000000000000000000000000000000000000602082015250565b6000610cd1602283610bd2565b9150610cdc82610c75565b604082019050919050565b60006020820190508181036000830152610d0081610cc4565b9050919050565b7f4e6f2062616c616e636520617661696c61626c6520746f20776974686472617760008201527f2e00000000000000000000000000000000000000000000000000000000000000602082015250565b6000610d63602183610bd2565b9150610d6e82610d07565b604082019050919050565b60006020820190508181036000830152610d9281610d56565b9050919050565b7f4f6e6c792064656c697665727920626f792063616e2063616c6c20746869732060008201527f66756e6374696f6e2e0000000000000000000000000000000000000000000000602082015250565b6000610df5602983610bd2565b9150610e0082610d99565b604082019050919050565b60006020820190508181036000830152610e2481610de8565b9050919050565b7f50726f6475637420686173206e6f74206265656e2064656c697665726564207960008201527f65742e0000000000000000000000000000000000000000000000000000000000602082015250565b6000610e87602383610bd2565b9150610e9282610e2b565b604082019050919050565b60006020820190508181036000830152610eb681610e7a565b9050919050565b7f5061796d656e742068617320616c7265616479206265656e2072656c6561736560008201527f642e000000000000000000000000000000000000000000000000000000000000602082015250565b6000610f19602283610bd2565b9150610f2482610ebd565b604082019050919050565b60006020820190508181036000830152610f4881610f0c565b9050919050565b7f4e487b7100000000000000000000000000000000000000000000000000000000600052601160045260246000fd5b6000610f8982610aca565b9150610f9483610aca565b9250828201905080821115610fac57610fab610f4f565b5b92915050565b7f416d6f756e7420746f2072656c65617365206d757374206265206c657373207460008201527f68616e206f7220657175616c20746f20636f6e74726163742062616c616e636560208201527f2e00000000000000000000000000000000000000000000000000000000000000604082015250565b6000611034604183610bd2565b915061103f82610fb2565b606082019050919050565b6000602082019050818103600083015261106381611027565b9050919050565b7f50726f647563742068617320616c7265616479206265656e2064656c6976657260008201527f65642e0000000000000000000000000000000000000000000000000000000000602082015250565b60006110c6602383610bd2565b91506110d18261106a565b604082019050919050565b600060208201905081810360008301526110f5816110b9565b905091905056fea2646970667358221220f58620a01e7ea41c5bd0e3a6a887bf945d4e663ab9af1f839fef8e7c4873196a64736f6c63430008120033",
  "linkReferences": {},
  "deployedLinkReferences": {}
}